{
  "contractName": "Vacunacion",
  "abi": [
    {
      "inputs": [],
      "stateMutability": "nonpayable",
      "type": "constructor"
    },
    {
      "inputs": [],
      "name": "owner",
      "outputs": [
        {
          "internalType": "address",
          "name": "",
          "type": "address"
        }
      ],
      "stateMutability": "view",
      "type": "function",
      "constant": true
    },
    {
      "inputs": [
        {
          "internalType": "uint256",
          "name": "",
          "type": "uint256"
        }
      ],
      "name": "vacunas",
      "outputs": [
        {
          "internalType": "bytes32",
          "name": "idVacuna",
          "type": "bytes32"
        },
        {
          "internalType": "string",
          "name": "idMascota",
          "type": "string"
        },
        {
          "internalType": "string",
          "name": "idClinica",
          "type": "string"
        },
        {
          "internalType": "string",
          "name": "idDoctor",
          "type": "string"
        },
        {
          "internalType": "string",
          "name": "nombreVacuna",
          "type": "string"
        },
        {
          "internalType": "string",
          "name": "fechaVacuna",
          "type": "string"
        }
      ],
      "stateMutability": "view",
      "type": "function",
      "constant": true
    },
    {
      "inputs": [
        {
          "internalType": "string",
          "name": "_idMascota",
          "type": "string"
        },
        {
          "internalType": "string",
          "name": "_idClinica",
          "type": "string"
        },
        {
          "internalType": "string",
          "name": "_idDoctor",
          "type": "string"
        },
        {
          "internalType": "string",
          "name": "_nombreVacuna",
          "type": "string"
        },
        {
          "internalType": "string",
          "name": "_fechaVacuna",
          "type": "string"
        }
      ],
      "name": "Vacunar",
      "outputs": [
        {
          "internalType": "bytes32",
          "name": "idM",
          "type": "bytes32"
        }
      ],
      "stateMutability": "nonpayable",
      "type": "function"
    },
    {
      "inputs": [
        {
          "internalType": "bytes32",
          "name": "idVacuna",
          "type": "bytes32"
        }
      ],
      "name": "getVacuna",
      "outputs": [
        {
          "components": [
            {
              "internalType": "bytes32",
              "name": "idVacuna",
              "type": "bytes32"
            },
            {
              "internalType": "string",
              "name": "idMascota",
              "type": "string"
            },
            {
              "internalType": "string",
              "name": "idClinica",
              "type": "string"
            },
            {
              "internalType": "string",
              "name": "idDoctor",
              "type": "string"
            },
            {
              "internalType": "string",
              "name": "nombreVacuna",
              "type": "string"
            },
            {
              "internalType": "string",
              "name": "fechaVacuna",
              "type": "string"
            }
          ],
          "internalType": "struct Vacunacion.Vacuna[]",
          "name": "",
          "type": "tuple[]"
        }
      ],
      "stateMutability": "view",
      "type": "function",
      "constant": true
    }
  ],
  "bytecode": "0x608060405234801561001057600080fd5b50336000806101000a81548173ffffffffffffffffffffffffffffffffffffffff021916908373ffffffffffffffffffffffffffffffffffffffff160217905550611500806100606000396000f3fe608060405234801561001057600080fd5b506004361061004c5760003560e01c806313834345146100515780631691090b14610081578063846898f5146100b65780638da5cb5b146100e6575b600080fd5b61006b60048036038101906100669190610af5565b610104565b6040516100789190610d28565b60405180910390f35b61009b60048036038101906100969190610d80565b6104e8565b6040516100ad96959493929190610e06565b60405180910390f35b6100d060048036038101906100cb9190610eef565b6107dc565b6040516100dd919061100c565b60405180910390f35b6100ee610a58565b6040516100fb9190611068565b60405180910390f35b60606000600167ffffffffffffffff81111561012357610122611083565b5b60405190808252806020026020018201604052801561015c57816020015b610149610a7c565b8152602001906001900390816101415790505b50905060005b6001805490508110156104de578360018281548110610184576101836110b2565b5b906000526020600020906006020160000154036104cb57600181815481106101af576101ae6110b2565b5b90600052602060002090600602016040518060c0016040529081600082015481526020016001820180546101e290611110565b80601f016020809104026020016040519081016040528092919081815260200182805461020e90611110565b801561025b5780601f106102305761010080835404028352916020019161025b565b820191906000526020600020905b81548152906001019060200180831161023e57829003601f168201915b5050505050815260200160028201805461027490611110565b80601f01602080910402602001604051908101604052809291908181526020018280546102a090611110565b80156102ed5780601f106102c2576101008083540402835291602001916102ed565b820191906000526020600020905b8154815290600101906020018083116102d057829003601f168201915b5050505050815260200160038201805461030690611110565b80601f016020809104026020016040519081016040528092919081815260200182805461033290611110565b801561037f5780601f106103545761010080835404028352916020019161037f565b820191906000526020600020905b81548152906001019060200180831161036257829003601f168201915b5050505050815260200160048201805461039890611110565b80601f01602080910402602001604051908101604052809291908181526020018280546103c490611110565b80156104115780601f106103e657610100808354040283529160200191610411565b820191906000526020600020905b8154815290600101906020018083116103f457829003601f168201915b5050505050815260200160058201805461042a90611110565b80601f016020809104026020016040519081016040528092919081815260200182805461045690611110565b80156104a35780601f10610478576101008083540402835291602001916104a3565b820191906000526020600020905b81548152906001019060200180831161048657829003601f168201915b5050505050815250508282815181106104bf576104be6110b2565b5b60200260200101819052505b80806104d690611170565b915050610162565b5080915050919050565b600181815481106104f857600080fd5b906000526020600020906006020160009150905080600001549080600101805461052190611110565b80601f016020809104026020016040519081016040528092919081815260200182805461054d90611110565b801561059a5780601f1061056f5761010080835404028352916020019161059a565b820191906000526020600020905b81548152906001019060200180831161057d57829003601f168201915b5050505050908060020180546105af90611110565b80601f01602080910402602001604051908101604052809291908181526020018280546105db90611110565b80156106285780601f106105fd57610100808354040283529160200191610628565b820191906000526020600020905b81548152906001019060200180831161060b57829003601f168201915b50505050509080600301805461063d90611110565b80601f016020809104026020016040519081016040528092919081815260200182805461066990611110565b80156106b65780601f1061068b576101008083540402835291602001916106b6565b820191906000526020600020905b81548152906001019060200180831161069957829003601f168201915b5050505050908060040180546106cb90611110565b80601f01602080910402602001604051908101604052809291908181526020018280546106f790611110565b80156107445780601f1061071957610100808354040283529160200191610744565b820191906000526020600020905b81548152906001019060200180831161072757829003601f168201915b50505050509080600501805461075990611110565b80601f016020809104026020016040519081016040528092919081815260200182805461078590611110565b80156107d25780601f106107a7576101008083540402835291602001916107d2565b820191906000526020600020905b8154815290600101906020018083116107b557829003601f168201915b5050505050905086565b60008a8a8a8a8a8a8a8a8a8a6040516020016108019a999897969594939291906111f7565b6040516020818303038152906040528051906020012060028190555060016040518060c0016040528060025481526020018d8d8080601f016020809104026020016040519081016040528093929190818152602001838380828437600081840152601f19601f8201169050808301925050505050505081526020018b8b8080601f016020809104026020016040519081016040528093929190818152602001838380828437600081840152601f19601f82011690508083019250505050505050815260200189898080601f016020809104026020016040519081016040528093929190818152602001838380828437600081840152601f19601f82011690508083019250505050505050815260200187878080601f016020809104026020016040519081016040528093929190818152602001838380828437600081840152601f19601f82011690508083019250505050505050815260200185858080601f016020809104026020016040519081016040528093929190818152602001838380828437600081840152601f19601f8201169050808301925050505050505081525090806001815401808255809150506001900390600052602060002090600602016000909190919091506000820151816000015560208201518160010190816109ea91906113f8565b506040820151816002019081610a0091906113f8565b506060820151816003019081610a1691906113f8565b506080820151816004019081610a2c91906113f8565b5060a0820151816005019081610a4291906113f8565b50505060025490509a9950505050505050505050565b60008054906101000a900473ffffffffffffffffffffffffffffffffffffffff1681565b6040518060c001604052806000801916815260200160608152602001606081526020016060815260200160608152602001606081525090565b600080fd5b600080fd5b6000819050919050565b610ad281610abf565b8114610add57600080fd5b50565b600081359050610aef81610ac9565b92915050565b600060208284031215610b0b57610b0a610ab5565b5b6000610b1984828501610ae0565b91505092915050565b600081519050919050565b600082825260208201905092915050565b6000819050602082019050919050565b610b5781610abf565b82525050565b600081519050919050565b600082825260208201905092915050565b60005b83811015610b97578082015181840152602081019050610b7c565b60008484015250505050565b6000601f19601f8301169050919050565b6000610bbf82610b5d565b610bc98185610b68565b9350610bd9818560208601610b79565b610be281610ba3565b840191505092915050565b600060c083016000830151610c056000860182610b4e565b5060208301518482036020860152610c1d8282610bb4565b91505060408301518482036040860152610c378282610bb4565b91505060608301518482036060860152610c518282610bb4565b91505060808301518482036080860152610c6b8282610bb4565b91505060a083015184820360a0860152610c858282610bb4565b9150508091505092915050565b6000610c9e8383610bed565b905092915050565b6000602082019050919050565b6000610cbe82610b22565b610cc88185610b2d565b935083602082028501610cda85610b3e565b8060005b85811015610d165784840389528151610cf78582610c92565b9450610d0283610ca6565b925060208a01995050600181019050610cde565b50829750879550505050505092915050565b60006020820190508181036000830152610d428184610cb3565b905092915050565b6000819050919050565b610d5d81610d4a565b8114610d6857600080fd5b50565b600081359050610d7a81610d54565b92915050565b600060208284031215610d9657610d95610ab5565b5b6000610da484828501610d6b565b91505092915050565b610db681610abf565b82525050565b600082825260208201905092915050565b6000610dd882610b5d565b610de28185610dbc565b9350610df2818560208601610b79565b610dfb81610ba3565b840191505092915050565b600060c082019050610e1b6000830189610dad565b8181036020830152610e2d8188610dcd565b90508181036040830152610e418187610dcd565b90508181036060830152610e558186610dcd565b90508181036080830152610e698185610dcd565b905081810360a0830152610e7d8184610dcd565b9050979650505050505050565b600080fd5b600080fd5b600080fd5b60008083601f840112610eaf57610eae610e8a565b5b8235905067ffffffffffffffff811115610ecc57610ecb610e8f565b5b602083019150836001820283011115610ee857610ee7610e94565b5b9250929050565b60008060008060008060008060008060a08b8d031215610f1257610f11610ab5565b5b60008b013567ffffffffffffffff811115610f3057610f2f610aba565b5b610f3c8d828e01610e99565b9a509a505060208b013567ffffffffffffffff811115610f5f57610f5e610aba565b5b610f6b8d828e01610e99565b985098505060408b013567ffffffffffffffff811115610f8e57610f8d610aba565b5b610f9a8d828e01610e99565b965096505060608b013567ffffffffffffffff811115610fbd57610fbc610aba565b5b610fc98d828e01610e99565b945094505060808b013567ffffffffffffffff811115610fec57610feb610aba565b5b610ff88d828e01610e99565b92509250509295989b9194979a5092959850565b60006020820190506110216000830184610dad565b92915050565b600073ffffffffffffffffffffffffffffffffffffffff82169050919050565b600061105282611027565b9050919050565b61106281611047565b82525050565b600060208201905061107d6000830184611059565b92915050565b7f4e487b7100000000000000000000000000000000000000000000000000000000600052604160045260246000fd5b7f4e487b7100000000000000000000000000000000000000000000000000000000600052603260045260246000fd5b7f4e487b7100000000000000000000000000000000000000000000000000000000600052602260045260246000fd5b6000600282049050600182168061112857607f821691505b60208210810361113b5761113a6110e1565b5b50919050565b7f4e487b7100000000000000000000000000000000000000000000000000000000600052601160045260246000fd5b600061117b82610d4a565b91507fffffffffffffffffffffffffffffffffffffffffffffffffffffffffffffffff82036111ad576111ac611141565b5b600182019050919050565b600081905092915050565b82818337600083830152505050565b60006111de83856111b8565b93506111eb8385846111c3565b82840190509392505050565b6000611204828c8e6111d2565b9150611211828a8c6111d2565b915061121e82888a6111d2565b915061122b8286886111d2565b91506112388284866111d2565b91508190509b9a5050505050505050505050565b60008190508160005260206000209050919050565b60006020601f8301049050919050565b600082821b905092915050565b6000600883026112ae7fffffffffffffffffffffffffffffffffffffffffffffffffffffffffffffffff82611271565b6112b88683611271565b95508019841693508086168417925050509392505050565b6000819050919050565b60006112f56112f06112eb84610d4a565b6112d0565b610d4a565b9050919050565b6000819050919050565b61130f836112da565b61132361131b826112fc565b84845461127e565b825550505050565b600090565b61133861132b565b611343818484611306565b505050565b5b818110156113675761135c600082611330565b600181019050611349565b5050565b601f8211156113ac5761137d8161124c565b61138684611261565b81016020851015611395578190505b6113a96113a185611261565b830182611348565b50505b505050565b600082821c905092915050565b60006113cf600019846008026113b1565b1980831691505092915050565b60006113e883836113be565b9150826002028217905092915050565b61140182610b5d565b67ffffffffffffffff81111561141a57611419611083565b5b6114248254611110565b61142f82828561136b565b600060209050601f8311600181146114625760008415611450578287015190505b61145a85826113dc565b8655506114c2565b601f1984166114708661124c565b60005b8281101561149857848901518255600182019150602085019450602081019050611473565b868310156114b557848901516114b1601f8916826113be565b8355505b6001600288020188555050505b50505050505056fea2646970667358221220f99b59d0cc7d4cdeb670e3508cabc14ff2f3a3f91c2d399789737986bfe2f7d764736f6c63430008130033",
  "immutableReferences": {},
  "source": "// SPDX-License-Identifier: MIT\npragma solidity ^0.8.19;\n\ncontract Vacunacion {\n\n  address public owner;\n\n  struct Vacuna {\n    bytes32 idVacuna;\n    string idMascota;\n    string idClinica;\n    string idDoctor;\n    string nombreVacuna;\n    string fechaVacuna;\n  }\n\n  //struct Hash {\n  //  string idMascota;\n  //  string idClinica;\n  //  string idDoctor;\n  //  string nombreVacuna;\n  //  string fechaVacuna;\n  //}\n\n\n  Vacuna[] public vacunas;\n  //Hash[] public hashes;\n  bytes32 id;\n\n  constructor() {\n    owner = msg.sender;\n  }\n\n  function Vacunar(\n    string calldata _idMascota,\n    string calldata _idClinica,\n    string calldata _idDoctor,\n    string calldata _nombreVacuna,\n    string calldata _fechaVacuna\n  ) public\n  returns(bytes32 idM){\n\n  //  hashes.push(\n  //    Hash({\n  //      idMascota: _idMascota,\n  //      idClinica: _idClinica,\n  //      idDoctor: _idDoctor,\n  //      nombreVacuna: _nombreVacuna,\n  //      fechaVacuna: _fechaVacuna\n  //    })\n  //  );\n\n  //  bytes memory hashBytes = abi.encode(hashes);\n\n  //  id = keccak256(hashBytes);\n\n    id = keccak256(abi.encodePacked(_idMascota,_idClinica,_idDoctor,_nombreVacuna,_fechaVacuna));\n\n    vacunas.push(\n      Vacuna({\n        idVacuna: id,\n        idMascota: _idMascota,\n        idClinica: _idClinica,\n        idDoctor: _idDoctor,\n        nombreVacuna: _nombreVacuna,\n        fechaVacuna: _fechaVacuna\n      })\n    );\n\n    return id;\n  }\n\n  function getVacuna(bytes32 idVacuna)\n  public\n  view\n  returns (Vacuna[] memory)\n  {\n\n    Vacuna[] memory result = new Vacuna[](1);\n    for (uint i = 0; i < vacunas.length; i++) {\n      if (vacunas[i].idVacuna == idVacuna){\n        result[i] = vacunas[i];\n      }\n    }\n    return result;\n  }\n}\n",
  "sourcePath": "C:\\Users\\DIEGO\\AndroidStudioProjects\\blockchain_vaccine_project-main\\contracts\\Vacunacion.sol",
  "compiler": {
    "name": "solc",
    "version": "0.8.19+commit.7dd6d404.Emscripten.clang"
  },
  "schemaVersion": "3.4.16",
  "updatedAt": "2025-03-27T20:44:22.902Z",
  "networkType": "ethereum",
  "devdoc": {
    "kind": "dev",
    "methods": {},
    "version": 1
  },
  "userdoc": {
    "kind": "user",
    "methods": {},
    "version": 1
  }
}